:0200000460009A
:1020000000000220394001605B7C00607782006044
:10201000AF820060339200607FCB00600000000060
:10202000000000000000000000000000BFE00060B1
:10203000ABE1006000000000D7E1006045480160AE
:10204000554C01605D4C0160654C01606D4C016058
:10205000754C01607D4C0160854C01608D4C0160C8
:10206000954C01609D4C0160A54C0160AD4C016038
:10207000B54C0160BD4C0160C54C0160CD4C0160A8
:10208000D54C0160D94D0160D94D0160D94D016039
:10209000DD4C0160E54C0160ED4C016021340060D5
:1020A000F54C0160FD4C0160054D01600D4D016076
:1020B000154D01601D4D0160254D01602D4D0160E4
:1020C000354D01603D4D0160454D01604D4D016054
:1020D000554D01605D4D0160D94D0160D94D0160E4
:1020E000D94D0160D94D0160D94D01604D4C016061
:1020F000D94D0160D94D0160D94D0160D94D0160C4
:10210000D94D0160D94D0160D94D0160D94D0160B3
:10211000D94D0160D94D0160D94D0160D94D0160A3
:10212000654D01606D4D0160754D01607D4D016033
:10213000854D0160D94D0160D94D0160D94D0160D7
:10214000D94D0160D94D0160D94D0160D94D016073
:10215000D94D0160D94D0160D94D0160D94D016063
:10216000D94D0160D94D0160D94D0160D94D016053
:10217000D94D0160D94D0160D94D0160D94D016043
:10218000D94D0160D94D0160D94D0160D94D016033
:10219000D94D0160D94D0160D94D0160D94D016023
:1021A000D94D0160D94D01608D4D0160954D0160A3
:1021B000D94D0160D94D0160D94D0160D94D016003
:1021C000D94D0160D94D0160D94D0160D94D0160F3
:1021D000D94D0160D94D0160D94D0160D94D0160E3
:1021E000D94D0160D94D0160D94D0160D94D0160D3
:1021F0009D4D0160D94D0160A54D0160AD4D01605F
:10220000D94D0160D94D0160B54D0160BD4D0160F2
:10221000D94D0160D94D0160D94D0160D94D0160A2
:10222000D94D0160D94D016071240060D94D016024
:10223000D94D0160D94D0160D94D0160D94D016082
:10224000D94D0160D94D0160D94D0160D94D016072
:10225000D94D0160D94D0160D94D0160D94D016062
:10226000D94D0160D94D0160D94D0160D94D016052
:10227000D94D0160D94D0160D94D0160D94D016042
:10228000D94D0160D94D0160D94D0160D94D016032
:10229000D94D0160D94D0160D94D0160D94D016022
:1022A000D94D0160D94D0160D94D0160D94D016012
:1022B000D94D0160D94D0160D94D0160D94D016002
:1022C000D94D0160D94D0160D94D0160D94D0160F2
:1022D000D94D0160D94D0160D94D0160D94D0160E2
:1022E000D94D0160D94D0160D94D0160D94D0160D2
:1022F000D94D0160D94D0160D94D0160D94D0160C2
:10230000D94D0160D94D0160D94D0160D94D0160B1
:10231000D94D0160D94D0160D94D0160D94D0160A1
:10232000D94D0160D94D0160D94D0160D94D016091
:10233000D94D0160D94D0160D94D0160D94D016081
:10234000D94D0160D94D0160D94D0160D94D016071
:10235000D94D0160D94D0160D94D0160D94D016061
:10236000D94D0160D94D0160D94D0160D94D016051
:10237000D94D0160D94D0160D94D0160D94D016041
:10238000D94D0160D94D0160D94D0160D94D016031
:10239000D94D0160D94D0160D94D0160D94D016021
:1023A000D94D0160D94D0160D94D0160D94D016011
:1023B000D94D0160D94D0160D94D0160D94D016001
:1023C000D94D0160D94D0160D94D0160D94D0160F1
:1023D000D94D0160D94D0160D94D0160D94D0160E1
:1023E000D94D0160D94D0160D94D0160D94D0160D1
:1023F000D94D0160D94D0160D94D0160FFFFFFFF4C
:1024000038B504000D00202D08D3B022DFF8AC1938
:10241000DFF8AC0901F0B4F8AFF300802068E840C1
:1024200010F0010032BD8269110504D440F612019A
:102430001140022901D1012300E000231900C9B293
:10244000002903D0C06910F07F0001E0C069C0B26C
:102450007047C9B209010844D0F80C0110F001001E
:1024600070470B00DBB21B010344C3F80C2170471B
:102470002DE9F843DFF84C4901212000FFF7E9FF7F
:10248000C00740F18280012201212000FFF7E9FF0F
:10249000DFF8DC5A2878002804D0DFF82C0900780F
:1024A000002833D0DFF82469300000F0F2FE30005D
:1024B00000F0E4FEDFF81879DFF8188941463000B3
:1024C00000F084F8387001F0A3F942463100387802
:1024D00000F09EFC01F062F8060001F0FCF8070035
:1024E000DFF8F408B0F90010494216FB01F8B0F922
:1024F0000000404217FB00F9414609B2012001F0FB
:1025000003FE494609B2022001F0FEFD28780028AA
:1025100004D1DFF8C8080188491C0180DFF8BC0835
:10252000008800EE100AB8EE400B9FED922B20EED3
:10253000020BB7EE002BB4EE420BF1EE10FA24DBE7
:10254000DFF89C08007800281FD0DFF89808008882
:1025500064280ADADFF890080088642805DADFF8D2
:102560008C080168491C016003E00020DFF87C183A
:102570000860DFF878080068C82806DB0120DFF86B
:1025800070180870062001F02EFF02212000FFF7CE
:1025900060FFC00706D5012202212000FFF761FF7E
:1025A00001F0E0FF03212000FFF753FFC00709D52A
:1025B000012203212000FFF754FFDFF8B00C01884F
:1025C000491C0180BFF34F8FBDE8F1832DE9F8432B
:1025D0002DED088B04000D009FED650A9FED64BA98
:1025E0009FED639ADFED620A9FED611A27263000A6
:1025F000C0B200280BD03000C0B204EB8000310024
:10260000C9B204EB810149688160761EEFE7D4ED21
:102610002A1A94ED2F2A71EE821A94ED2C2A71EE6B
:10262000821A94ED2D2A71EE829AD4ED2C1A94ED33
:102630002D2A31EE82AAD4ED321A94ED332A71EEAE
:10264000821A94ED302A71EEC21A94ED352A71EE99
:10265000C2AADFF8887738889FED468BDFF8941799
:10266000D1ED001AB7EEE12A80B201EE900AB8EE81
:10267000613B23EE083BB4EE423BF1EE10FA01D58C
:102680000A2096E3DFF870170878002801D00020B0
:102690000870DFF8680790ED000AB4EE690AF1EE01
:1026A00010FA6BD5DFF858170888002866D1DFF8D4
:1026B000800B0078002861D10888401C0880388889
:1026C000DFF84017088001221821DFF8680B02F0BC
:1026D00000F8DFF8643BB3F90000DFF82C2711683D
:1026E000DFF828775FF0050C10FB0CF03844405CF5
:1026F00000281ED0DFF8780B0068A060B3F9001046
:1027000017681420DFF834CB11FB00F1614451F855
:102710002710B3F90030126809B2DFF8247B13FBED
:1027200000F0384450F8220000B201F067FC0B20A2
:102730003FE3DFF8100B0068A060B3F900101768E2
:102740001420DFF8F8CA11FB00F1614451F827109A
:10275000B3F90030126809B2DFF8E47A13FB00F035
:10276000384450F8220000B201F048FC072020E372
:1027700000000000FA7E6ABC7493683FDFF8C80A64
:1027800090ED000AB4EE40AAF1EE10FA48D5DFF859
:10279000A80AB0F90010DFF870060268DFF8AC3A5A
:1027A0005FF0140C11FB0CF1194401EB820191ED67
:1027B000000A398800EE901AB8EE601B21EE081B63
:1027C000DFF84016098800EE901AB8EE602B02EE92
:1027D000481BB7EEC00AB4EE410BF1EE10FA1FD55C
:1027E000DFF81C86B8F80010012919D10168491CCE
:1027F00001600020DFF8581A08700020DFF8541A32
:1028000008700020DFF8281A087001F003FC00208F
:10281000A8F8000000221821DFF8180A01F059FF7B
:10282000DFF8340A90ED000AB4EE6A0AF1EE10FA0D
:102830005BD595ED000AB4EE690AF1EE10FA54D5B5
:10284000DFF8181A088800284FD1DFF8040A00784A
:1028500000284AD1DFF8FC090078002845D1088813
:10286000401C08800020DFF8F81908800122182198
:10287000DFF8C00901F02DFF3888DFF8E81908807B
:10288000DFF8880B90ED000AD4ED2C0A20EE200A28
:1028900080EE0A0ADFF8780BD0ED000A94ED2D1ACD
:1028A00060EE810AC0EE8A0A30EE200A84ED020A48
:1028B000DFF8900994ED020AD0ED000AB4EE600A48
:1028C000F1EE10FA02D50068A0600CE0DFF8A00974
:1028D00090ED000AD4ED020AB4EE600AF1EE10FAAF
:1028E00001D50068A060062063E2DFF87C0900885B
:1028F000292858DADFF81C0B0088DFF81C1BB1F917
:10290000001088424FDBDFF82809007800284AD100
:10291000DFF848090188491C01800021DFF84029BF
:10292000118000880B2842DB01221821DFF80409FE
:1029300001F0CFFE3888DFF82C190880DFF8CC0AC8
:1029400090ED000AD4ED2C0A20EE200A80EE0A0A4F
:10295000DFF8BC0AD0ED000A94ED2D1A60EE810A72
:10296000C0EE8A0A30EE200A84ED020ADFF8D408AD
:1029700094ED020AD0ED000AB4EE600AF1EE10FA0E
:1029800002D50068A0600CE0DFF8E40890ED000AD2
:10299000D4ED020AB4EE600AF1EE10FA01D5006837
:1029A000A060062005E20020DFF8B0180880DFF8FC
:1029B0006C0A90ED000A388800EE900AB8EE601BB1
:1029C00021EE081BDFF89C08008800EE900AB8EEA4
:1029D000602B02EE481BB7EEC00AB4EE410BF1EEDD
:1029E00010FA12D5DFF8488898F8000000280CD0BB
:1029F00000221821DFF83C0801F06BFE0020DFF810
:102A00005C180880002088F8000095ED000AF4EEBC
:102A1000409AF1EE10FA4DD5DFF81408007800283E
:102A200048D1DFF8980A0188491C01809FEDC20A4D
:102A30000021DFF82C2811800088102803DB0120FA
:102A4000DFF87C1A087001210800C0B2DFF8742A90
:102A5000B2F9002000B2904209DA0800C0B204EBDB
:102A60008000D0ED020A30EE200A491CECE7D4EDDC
:102A7000010A30EE200AB5EE400AF1EE10FA04D455
:102A8000DFF8D0070078002804D0DFF8B807006826
:102A9000A0600DE0B5EE400AF1EE10FA04DCDFF8BC
:102AA000B0070078002803D0DFF8C4070068A060F2
:102AB00002207EE10020DFF8041A08800020DFF801
:102AC000001A087094ED2B0AD4ED2E0A20EE200A8D
:102AD000D5ED010AF4EE400AF1EE10FA54D5DFF814
:102AE0007007007800284FD1DFF8680700780028C9
:102AF0004AD10020DFF868170880DFF8CC09018888
:102B0000491C018000880928C0F2B08001221821E8
:102B1000DFF8200701F0DDFD062001F064FCDFF89E
:102B2000EC0890ED000AD4ED2C0A20EE200A80EE8D
:102B30000A0ADFF8DC08D0ED000A94ED2D1A60EEE9
:102B4000810AC0EE8A0A30EE200A84ED020ADFF81C
:102B5000F40694ED020AD0ED000AB4EE600AF1EE3C
:102B600010FA02D50068A0600CE0DFF8040790EDD1
:102B7000000AD4ED020AB4EE600AF1EE10FA01D5B3
:102B80000068A060032014E1DFF83C89B8F8000079
:102B9000102856DBDFF83499B9F80000401CA9F87A
:102BA0000000DFF82C09B0F90000B9F800108842E5
:102BB0000CDA00221821DFF87C0601F08AFD0020E3
:102BC000A9F800000020A8F800004FE00122182119
:102BD000DFF8600601F07DFDDFF8300890ED000AB7
:102BE000D4ED2C0A20EE200A80EE0A0ADFF8200835
:102BF000D0ED000A94ED2D1A60EE810AC0EE8A0A2B
:102C000030EE200A84ED020ADFF8380694ED020A5D
:102C1000D0ED000AB4EE600AF1EE10FA02D50068B9
:102C2000A0600CE0DFF8480690ED000AD4ED020A3F
:102C3000B4EE600AF1EE10FA01D50068A06003203E
:102C4000B7E0B8F80000082809DBB8F80000102841
:102C500005DA00221821DFF8DC0501F03AFD00203A
:102C6000A8F800000020DFF864180880DFF8640886
:102C70000078002839D1DFF8608803214046FFF74B
:102C8000BFFB002805D116214046FFF7B9FB0028FD
:102C900054D0DFF89C05007800284FD1DFF83C18AD
:102CA000088800284AD1DFF89005B0F90000DFF865
:102CB000302800B202EB800090ED000A388800EE68
:102CC000900AB8EE601B21EE081BB7EEC00AB4EE06
:102CD000410BF1EE10FA31D50888401C0880388885
:102CE000DFF800180880082063E0DFF84C05B0F931
:102CF0000000DFF8EC1700B201EB800090ED000A55
:102D0000388800EE900AB8EE601B21EE081BB7EE83
:102D1000C00AB4EE410BF1EE10FA0FD5DFF8BC1784
:102D2000088800280AD10888401C08803888DFF805
:102D3000B417088008203CE0000000006068A06034
:102D4000DFF8EC040078002832D0DFF8C00690ED00
:102D5000000AD4ED2C0A20EE200A80EE0A0ADFF8E1
:102D6000B006D0ED000A94ED2D1A60EE810AC0EE97
:102D70008A0A30EE200A84ED020ADFF8C80494EDD6
:102D8000020AD0ED000AB4EE600AF1EE10FA02D5A4
:102D90000068A0600CE0DFF8D80490ED000AD4EDE4
:102DA000020AB4EE600AF1EE10FA01D50068A060E4
:102DB0000420BDEC088BBDE8F283000018390160E7
:102DC000BC490160004008400418008044150080A0
:102DD00010170080001700807E0400202615008058
:102DE0008E04002000000080020000802C1500806E
:102DF000381500808802002036150080040100206C
:102E00003C15008066040020001800809C03002010
:102E10002DE9F84304000D001600554800780028FD
:102E200040F0A8802000C0B2022826D0032816D087
:102E3000042815D0062800F0878007287CD00828B1
:102E400000F08680092800F08B800A2802D00B2829
:102E500076D08FE00120DFF8901608708AE089E0D4
:102E600095F8B801002807D1DFF8C40300780028DE
:102E700002D1012085F8B8017CE0DFF84406007833
:102E8000002809D1DFF8C8030078002804D1DFF852
:102E9000C403007800284ED0DFF8500600780028E0
:102EA00049D1DFF84C060078002844D195ED020A9C
:102EB000B5EE400AF1EE10FA1BD5DFF838060078BF
:102EC000002816D1DFF888030078002808D0DFF842
:102ED0002806B0F90000783880B201F099FC29E0AA
:102EE000DFF81406B0F90000783080B201F090FCF1
:102EF00020E095ED020AB5EE400AF1EE10FA19DB7A
:102F0000DFF8F0050078002814D1D24800780028B6
:102F100008D0DFF8E405B0F90000783080B201F0A5
:102F200077FC07E0DFF8D005B0F90000783880B210
:102F300001F06EFC79E11DE00120C549087019E03F
:102F40000120C449087015E00120B949087011E05A
:102F5000032001F048FA0120DFF89015087009E01D
:102F6000032001F040FA0120DFF88415087001E029
:102F700090040020DFF8841508889FEDBE0BDFF871
:102F8000802592ED001AB7EEC11A80B202EE100A47
:102F9000B8EE422B22EE002BB4EE412BF1EE10FAEC
:102FA00010D5DFF84405007800280BD0DFF8540571
:102FB0000068DFF84415B1F90010081880B201F07C
:102FC00027FC32E1A2480078002864D0B1F800C0A4
:102FD000994AB2F900E0DFF83005D0F80080DFF858
:102FE0002C351427DFF828951EFB07FECE440EEB88
:102FF000880E9EED001AB7EEC11A1FFA8CFC02EE85
:1030000010CAB8EE422B22EE002BB3F800C003EE3C
:1030100010CAB8EE433B03EE402BB4EE412BF1EE69
:1030200010FA38D5B2F900C0D0F800E0DFF8E48437
:103030001CFB07F7474407EB8E0797ED001A0F8834
:1030400001EE907AB8EE612B22EE002B1B8801EE88
:10305000903AB8EE613B03EE402BB7EEC11AB4EEE6
:10306000421BF1EE10FA16D5B2F900100068DFF835
:10307000A8240A2311FB03F1114431F91000DFF8F1
:103080007814B1F90010081A80B201F0C1FB0020D9
:1030900073490880C9E06F480078002864D0B1F80F
:1030A00000C0654AB2F900E0DFF85C04D0F80080A7
:1030B000DFF858341427DFF858941EFB07FECE447F
:1030C0000EEB880E9EED001AB7EEC11A1FFA8CFCAB
:1030D00002EE10CAB8EE422B22EE002BB3F800C06D
:1030E00003EE10CAB8EE433B03EE402BB4EE412B87
:1030F000F1EE10FA38D5B2F900C0D0F800E0DFF8F0
:1031000014841CFB07F7474407EB8E0797ED001A62
:103110000F8801EE907AB8EE612B22EE002B1B880F
:1031200001EE903AB8EE613B03EE402BB7EEC11AC8
:10313000B4EE421BF1EE10FA16D5B2F90010006899
:10314000DFF8D4230A2311FB03F1114431F91000F5
:10315000DFF8A413B1F90010081880B201F058FB91
:1031600000203F49088060E0DFF8800300780028F5
:103170004FD03148B0F90020DFF8A03312B203EB92
:10318000820292ED001ADFF85C230B8801EE903A80
:10319000B8EE612B22EE002B138801EE903AB8EEC8
:1031A000613B03EE402BB7EEC11AB4EE421BF1EEC9
:1031B00010FA2ED50988B0F90000DFF8643300B2A8
:1031C00003EB800090ED001AB7EEC11A89B202EE4F
:1031D000101AB8EE422B22EE002B108803EE100AD4
:1031E000B8EE433B03EE402BB4EE412BF1EE10FA68
:1031F00009D5C4480068C049B1F90010081880B268
:1032000001F006FB11E0BC48008880B201F000FB31
:103210000BE001F0A2FBC348B0F90000B649B1F9D8
:103220000010081880B201F0F3FABDE8F183000045
:103230003215008000C01B40E817008038030020D2
:10324000D4020020DC030020080100202801002017
:103250003015008031150080F80000203A150080FC
:1032600012000080680400204015008028150080AE
:10327000E0030020FA7E6ABC7493683F10B5040036
:1032800001F07EFCA4F8780101F065FCA4F87A0155
:1032900010BD10B5040001F0E5FA01F0EBFA01F001
:1032A00001FB01F007FB01F0EDFA01F0F3FA9E4893
:1032B000008880B200EE100AB8EE400A9B48D0EDBC
:1032C000000A80EE200A84ED2A0A9948008880B21C
:1032D00000EE100AB8EE400A9648D0ED000A80EEE3
:1032E000200A84ED2B0A9448008880B200EE100A70
:1032F000B8EE400A9148D0ED000A80EE200A84ED35
:103300002C0A8F48008880B200EE100AB8EE400AFE
:103310008C48D0ED000A80EE200A84ED2D0A8A4800
:10332000008880B200EE100AB8EE400A8748D0ED5F
:10333000000A80EE200A84ED2E0A8548008880B2BB
:1033400000EE100AB8EE400A8248D0ED000A80EE86
:10335000200A84ED2F0A94ED2A0AD4ED2C0A30EECF
:10336000200AD4ED2D0A30EE200AD4ED2F0A30EEDB
:10337000200AD4ED2A0AC0EE800AC4ED300AD4ED4A
:103380002C0AC0EE800AC4ED320AD4ED2D0AC0EE3C
:10339000800AC4ED330AD4ED2F0AC0EE800AC4EDD2
:1033A000350A6D48D0ED000A94ED301AD4ED351A87
:1033B00031EE611A61EE200A94ED321AD4ED331A1F
:1033C00031EE611A6548D0ED001A41EE210AC4EDD4
:1033D000000A206860606248D4ED010A90ED001A8E
:1033E000F4EE410AF1EE10FA02D5006860600BE0DD
:1033F0005C48D0ED000A94ED011AF4EE410AF1EEBA
:1034000010FA01D50068606010BD0000CC030020F8
:10341000D00300204215008076040020A402002082
:1034200070B551480068800246D5504C504D514807
:10343000FEF7F9FF217868542078401C092190FBA1
:10344000F1F201FB120020702078285C592831D15C
:103450002078401C092190FBF1F201FB1200285C4E
:10346000592827D12078801C09212278D21C0923D1
:1034700090FBF1F601FB1600285C92FBF3F103FBD5
:103480001122A95C090208183B4908802078001D18
:1034900009212278521D092390FBF1F401FB14004D
:1034A000285C92FBF3F103FB1122A95C09020818C6
:1034B00032490880BFF34F8F70BD000012170080A3
:1034C0003715008072040020141700801617008042
:1034D0007C0400200618008000801B403E15008000
:1034E000900200206A040020361500803415008008
:1034F00035150080331500807A04002026150080E1
:10350000880200208C020020001800806604002041
:103510008C01002024020020F0010020B8030020CC
:10352000AC0200201000008000000080FC000020A1
:103530000400008018010020080000802001002005
:103540000A00008024010020060000801C010020E9
:103550000200008000010020D4030020D8030020D6
:10356000DC030020E003002014001940181700803D
:103570001C17008000001940401500804215008093
:1035800070B504000D00160033002A002100024827
:1035900001F0DEFC00BEFDE7443F0160F0B4DFF85F
:1035A0007C0AB0F87811DFF8782A1180DFF8741AF5
:1035B0000A68B0F97831D2180A60DFF86C1ADFF8BF
:1035C0006C2AB2F90020B0F87801121A0A80DFF8EC
:1035D000600A90ED000AB1F90000DFF8582AB2F94C
:1035E0000040DFF8543AD3ED000AB1F90050DFF89B
:1035F0004C3A93ED001AB1F90060B2F90070DFF8AF
:1036000040CADFF8403A00B224B2001B01EE900A33
:10361000F8EEE11A21EE800A2DB201EE905AF8EE92
:10362000E11A01EEA00A36B23FB2B6EB4706B3F993
:10363000000006FA80F000EE900AF8EEE00A00EED4
:10364000810ABDEEC00A10EE100AACF80000DFF8E7
:10365000F849B4F90050BCF80000451925801088DD
:10366000188008881080B4F90000C92801DBC82040
:103670002080B4F9000010F1C80F02DA7FF0C70013
:103680002080B1F9000000B200EE100AB8EEC00AC6
:10369000DFF8B809D0ED000AF1EE600AB4EE600A76
:1036A000F1EE10FA02D57FF0C70012E0DFF8A009B2
:1036B00090ED000AB1F9000000EE900AF8EEE00A81
:1036C000B4EE600AF1EE10FA01D5C82001E0B4F9B9
:1036D0000000F0BC7047F0B4DFF84009B0F87A1190
:1036E000DFF870291180DFF870190A68B0F97A31B3
:1036F000D2180A60DFF86419DFF86429B2F90020F3
:10370000B0F87A01121A0A80DFF8240990ED000A55
:10371000B1F90000DFF84C29B2F90040DFF81839A0
:10372000D3ED000AB1F90050DFF8103993ED001A1B
:10373000B1F90060B2F90070DFF82CC9DFF82C395C
:1037400000B224B2001B01EE900AF8EEE11A21EE5D
:10375000800A2DB201EE905AF8EEE11A01EEA00AAD
:1037600036B23FB2B6EB4706B3F9000006FA80F076
:1037700000EE900AF8EEE00A00EE810ABDEEC00A03
:1037800010EE100AACF80000DFF8E448B4F900507D
:10379000BCF8000045192580108818800888108022
:1037A000B4F90000C92801DBC8202080B4F900006A
:1037B00010F1C80F02DA7FF0C7002080B1F90000D5
:1037C00000B200EE100AB8EEC00ADFF88008D0EDB3
:1037D000000AF1EE600AB4EE600AF1EE10FA02D5CA
:1037E0007FF0C70012E0DFF8680890ED000AB1F939
:1037F000000000EE900AF8EEE00AB4EE600AF1EE86
:1038000010FA01D5C82001E0B4F90000F0BC7047FF
:10381000F8B52DED028BDFF85C180878002811D080
:103820000020DFF8541808800020DFF80018088016
:103830000020DFF82C1808800120DFF8E01781F85D
:10384000B80182E2DFF834080078002816D0DFF8EB
:1038500030080078002811D1DFF828080078002807
:103860000CD10020DFF8101808800020DFF8BC170A
:1038700008800020DFF8E817088066E2DFF80038EB
:10388000187800285ED0DFF800482088DFF8FC2791
:10389000B2F90060DFF8F8579FED970BDFF8F47787
:1038A00036B207EB860696ED001AB7EEC11A80B263
:1038B00002EE100AB8EE422B22EE002B288803EE0F
:1038C000100AB8EE433B03EE402BB4EE412BF1EE71
:1038D00010FA37D5DFF8AC070078002832D1B2F9FA
:1038E0000000DFF8B46700B206EB800090ED001A2C
:1038F000208801EE900AB8EE612B22EE002B28887A
:1039000001EE900AB8EE613B03EE402BB7EEC10A20
:10391000B4EE420BF1EE10FA14D5B2F90000DFF864
:103920007C1700B231F81000DFF800170880B2F9F8
:103930000000DFF86C1700B231F81000DFF8201734
:10394000088002E2DFF84427B2F90000DFF84447BC
:1039500000B204EB800090ED001ADFF834579FEDC1
:10396000660BDFF82447208801EE900AB8EE612B41
:1039700022EE002B288801EE900AB8EE613B03EEA0
:10398000402BB7EEC11AB4EE421BF1EE10FA0DD582
:10399000DFF8F0060078002808D10020DFF88C1648
:1039A00008800020DFF8B8160880CEE1DFF8D406E2
:1039B0000078002848D01878002845D1DFF85C0648
:1039C000B0F97831062B0EDBB0F97A0106280ADB54
:1039D000208828804FF69C70DFF850160880DFF8AA
:1039E00080160880B1E1B2F90000DFF8B83600B205
:1039F00003EB800090ED001A208801EE900AB8EEEB
:103A0000612B22EE002B288801EE900AB8EE613B74
:103A100003EE402BB7EEC10AB4EE420BF1EE10FA02
:103A20006ED5B2F90000DFF8801600B231F8100050
:103A3000DFF8F8351880B2F9000000B231F8100054
:103A4000DFF81C16088080E1DFF8600600780028A7
:103A500008D03C20DFF8D41508803C20DFF80016A1
:103A6000088072E1DFF848060078002848D0DFF8C7
:103A700044060078002843D1DFF83C06007800288F
:103A80003ED12088DFF8341691ED001AB7EEC11A46
:103A900080B202EE100AB8EE422B22EE002BDFF8C5
:103AA0002006008803EE100AB8EE433B03EE402BDD
:103AB000B4EE412BF1EE10FA0ED5DFF808060188BE
:103AC000DFF8682511800088DFF894150880002051
:103AD000DFF8F41508800DE0DFF8F0050188DFF865
:103AE0004C2511800088DFF8781508800020DFF869
:103AF000D815088029E100BFFA7E6ABC7493683F3C
:103B00000878002840F02181DFF8C40500780028FB
:103B10003FD0DFF8C015B1F90030DFF8BC251BB28B
:103B2000B2F900001B1A00EE103AB8EEC00ADFED41
:103B3000880A80EE208ADFF8A4050088DFF8A03527
:103B40001C88041B200000B2012801DA24B2644260
:103B5000B1F9000000EE100AB8EEC00A200000B271
:103B600000EE900AF8EEE00A00EEC80ABDEEC00AC8
:103B700010EE105A2800B2F9001000B2884202DAA2
:103B8000B2F900000500DFF8F004058000F0E4F869
:103B9000DBE000219FED6F8ADFED6E8A0020DFF809
:103BA00044350400E4B21D88A4B2AC421BD2B0EE8E
:103BB000C80ADFF868340400E4B203EB8404D4EDEF
:103BC000020AF0EEE00AB4EE600AF1EE10FA08D54F
:103BD0000400E4B203EB84039B6833F0004308EE77
:103BE000103A401CDBE7DFF8005595ED000AB4EE13
:103BF000480AF1EE10FA03D595ED000AB0EE408ABE
:103C000000242000C0B21E8880B2B0422ED2B0EE96
:103C1000E80ADFF808042600F6B200EB8606D6EDC7
:103C2000020A1E8856FA84F600EB860696ED021A02
:103C300070EEC10AF0EEE00AB4EE600AF1EE10FA9E
:103C400012D52600F6B200EB860696ED020A1E8813
:103C500056FA84F600EB8600D0ED020A30EE600AD8
:103C6000B0EEC00AF0EE408A641CCAE7B2F9000068
:103C7000DFF8783400B233F81000B2F9006036B2E1
:103C800033F81660B2F90070DFF864C43FB23CF854
:103C9000177095ED000AB2F900502DB233F81550A7
:103CA000B2F900C080B200EE900AF8EE600AB6B237
:103CB000BFB2F61B01EE106AB8EEC11A21EE081A67
:103CC00081EE000A30EEC00AB7EEC00AADB2DFF8EE
:103CD00024040FFA8CFC30F81C002D1A01EE105A47
:103CE000B8EEC11A21EE281AB7EEC11AB0EE083BA1
:103CF00081EE031B30EE410BBDEEC00B10EE105AEF
:103D0000B2F9000000B233F810002E00B6B2B04293
:103D100006D2B2F9000000B233F81000050010E03E
:103D2000B2F90010DFF8D0032B0009B230F81110FF
:103D30009BB28B4205D2B2F9001009B230F81100E3
:103D40000500CD48058000F007F8BDEC028BF1BD01
:103D50000000F0420000000030B4DFF87403007887
:103D600000283CD0DD480188DD480088081A0100A1
:103D700009B2002918D500B24042BF4A118800EEAE
:103D8000101AB8EE400B010009B201EE101AB8EE9D
:103D9000C11B9FED9E3B01EE430BBDEEC00B10EE31
:103DA000101AB2F9002015E0B34AB2F900101288D7
:103DB00000EE102AB8EE400B020012B201EE102AFB
:103DC000B8EEC11B9FED913B01EE430BBDEEC00B66
:103DD00010EE102A954B1980A14B1A800CE1AB48CC
:103DE000B0F90020C44912B231F81230A24A148846
:103DF0009BB2A34245D2B9490B889BB2B849B1F9ED
:103E00000010591A00291ED549421388B0F9000044
:103E10009BB200EE103AB8EE400A00EE901AF8EEAF
:103E2000E00AB64B00B203EB800090ED001A00EE02
:103E3000C10ABDEEC00A10EE100A7C4B1880108833
:103E4000874A10801CE01388784C23801288B0F9D0
:103E5000000092B200EE102AB8EE400A00EE901A6E
:103E6000F8EEE00AA54A00B202EB800090ED001ADD
:103E700000EEC10ABDEEC00A10EE100A784A1080AA
:103E8000BAE0964A13889BB2954AB2F900209A1A72
:103E9000002A59D55242B0F900301BB231F8134014
:103EA000B0F90050964BA4B22DB253F82550AC4255
:103EB00024DBB0F9004024B203EB840393ED000A45
:103EC000B0F90030B8EEC00A00EE902AF8EEE00A31
:103ED0008C4C1BB204EB830393ED001A00EEC10A75
:103EE000BDEEC00A10EE103A504C2380B0F900002D
:103EF00000B231F810005A4908807DE0B0F9003076
:103F00001BB231F81330B0F900409BB200EE103A0A
:103F1000B8EE400A00EE902AF8EEE00A794B24B29F
:103F200003EB840393ED001A00EEC10ABDEEC00A54
:103F300010EE103A3D4C2380B0F9000000B231F889
:103F400010004749088057E0B0F900301BB231F843
:103F50001340B0F900506A4BA4B22DB253F825506B
:103F6000AC4224DBB0F9004024B231F814102F4CDD
:103F70002180B0F9001009B203EB810191ED000A34
:103F8000B0F90000B8EEC00A00EE902AF8EEE00AA0
:103F90005C4900B201EB800090ED001A00EEC10A0E
:103FA000BDEEC00A10EE100A2D49088024E0B0F9D9
:103FB00000301BB231F813301C4C2380B0F90030B4
:103FC0001BB231F81310B0F9000089B200EE101ADC
:103FD000B8EE400A00EE902AF8EEE00A494900B235
:103FE00001EB800090ED001A00EEC10ABDEEC00AA0
:103FF00010EE100A1A49088030BC7047364A10800B
:10400000344A11800122324B1A70704733333333F4
:104010003333D33F00202E49087070474415008089
:104020003C170080401700802C1700806E04002091
:10403000100000202E17008014000020F0170080D0
:104040002A17008030170080281700808800002081
:10405000840000203E17008044170080361700803F
:104060007004002038170080341700803A17008051
:1040700032170080900400206C0400203815008066
:10408000341500803515008026150080E817008063
:104090006A040020AC020020B80300208C0000203D
:1040A000F4170080C0020020980000203615008020
:1040B000321500803015008031150080A8020020E4
:1040C000680400208A040020120000808C04002074
:1040D000481700804C1700804A170080F6140080B3
:1040E0007A04002074040020E0030020180000205F
:1040F0003C00002030000020240000205C00002054
:10410000480000207000002038B504000D00200099
:10411000C0B2052807DB40F272223C493C48FFF759
:104120002FFAAFF300802000C0B2012806D06CD374
:10413000032831D019D3042845D066E0280000B206
:10414000002807D42B009BB200220321314800F045
:1041500031FF09E00023280000B24042020092B281
:1041600003212C4800F026FF4FE0280000B2002871
:1041700007D400232A0092B20321274800F01AFF37
:1041800009E0280000B2404203009BB20022032154
:10419000214800F00FFF38E0280000B2002807D4C3
:1041A0002B009BB2002201211B4800F003FF09E015
:1041B0000023280000B24042020092B201211648BA
:1041C00000F0F8FE21E0280000B200280DD4002302
:1041D00000220221104800F03DFF2B009BB201227B
:1041E00001210C4800F036FF0FE0280000B24042E9
:1041F00003009BB200220221074800F02BFF00239E
:1042000001220121034800F025FF31BDFC3B016084
:10421000EC4B016000C03D4000003E40F8B504009A
:104220000F0025002DB22D0A260036B216F01F060B
:10423000072D07D340F2C132B849B948FFF7A0F9BA
:10424000AFF30080B74800EB850001680322B2405D
:1042500091433A00D2B2B24011430160F1BD10B5B2
:1042600004000321200000B2FFF7D8FF10BD70B496
:10427000049C11F00705260116F010063543056071
:10428000002A00D0136070BC704730B4029C039DBC
:10429000002C00D0256030BC70472DE9FE4F40F265
:1042A0000240FFF7DCFFA04D0020019000950023A5
:1042B000002205219D48FFF7DAFF9D4E9D4F00200B
:1042C000019000970023002205213000FFF7CFFF67
:1042D000DFF86482DFF8649200200190CDF800904E
:1042E0000023002205214046FFF7C1FFDFF850A25E
:1042F000DFF850B200200190CDF800B0002300227A
:1043000005215046FFF7B3FF41F2B0040194009538
:104310000023002205218548FFF7B7FF019400978D
:104320000023002205213000FFF7AFFF0194CDF8F4
:1043300000900023002205214046FFF7A6FF0194CC
:10434000CDF800B00023002205215046FFF79DFF65
:104350007D48006802907D4D02AA1721280000F0D8
:104360008EF97B4E02AA1A21300000F088F902AAC9
:104370001B21300000F083F902AA1821280000F068
:104380007EF9744E744F00200190009700230022A4
:1043900005213000FFF76BFF0194009700230022F6
:1043A00005213000FFF771FF02AA0621280000F066
:1043B00066F96A4E6A4F00200190009700230022A0
:1043C00005213000FFF753FF0194009700230022DE
:1043D00005213000FFF759FF02AA1921280000F03B
:1043E0004EF9BDE8F78F38B504002000C0B20028B0
:1043F0000BD002282BD019D304284AD038D3062852
:1044000069D057D3072877D086E0002217214F487C
:1044100000F05FF94E4D00221A21280000F059F9F2
:1044200000221B21280000F054F975E00122172119
:10443000464800F04EF9464D01221A21280000F0AE
:1044400048F901221B21280000F043F964E0012211
:1044500017213E4800F03DF93D4D00221A21280069
:1044600000F037F901221B21280000F032F953E057
:1044700000221721354800F02CF9354D01221A2170
:10448000280000F026F901221B21280000F021F964
:1044900042E0012217212D4800F01BF92C4D01228A
:1044A0001A21280000F015F900221B21280000F035
:1044B00010F931E000221721244800F00AF9244DB8
:1044C00000221A21280000F004F901221B212800F3
:1044D00000F0FFF820E0012217211C4800F0F9F855
:1044E0001B4D00221A21280000F0F3F800221B21A6
:1044F000280000F0EEF80FE000221721134800F02A
:10450000E8F8134D01221A21280000F0E2F80022F9
:104510001B21280000F0DDF831BD000038370160B4
:104520008C49016068C00F4088831F4098811F40FC
:10453000B4801F40A4821F40B8801F40A8821F4043
:104540009C811F408C831F40D04D016000C01B40E8
:1045500000001C4054811F4044831F40A0811F4025
:1045600090831F4038B51E4D01221021280000F015
:10457000B0F800221C21280000F0ABF801221C2119
:10458000280000F0A6F800221021280000F0A1F871
:1045900001221021280000F09CF800221C21280094
:1045A00000F097F800242000C0B2802814DA00221E
:1045B0001021280000F08DF80B210A4800F012FEAF
:1045C00006492200D2B221F812000122102128004F
:1045D00000F07FF8641CE6E731BD0000E0030080D6
:1045E00000801B4000400C40F8B504000F0025007F
:1045F0002DB22D0A260036B216F01F06072D07D35E
:1046000040F2C13241494248FEF7BAFFAFF30080A1
:10461000404800EB850001680322B24091433A0014
:10462000D2B2B24011430160F1BD10B504000321C4
:10463000200000B2FFF7D8FF10BD70B504000D00D8
:1046400016003200D2B22900200000F06FF870BDD1
:1046500038B504000025062D06D22F4850F8250055
:10466000A04201D06D1CF6E7062D06D339222B4956
:104670002B48FEF785FFAFF30080280032BDF8B568
:1046800004000D0016002000FFF7E2FF254931F974
:104690001000FFF7CAFF0127616917FA05F081438F
:1046A00061613078002805D16068AF4030EA0707C3
:1046B000676008E072782900200000F00AF860685E
:1046C000AF4007436760B27829002000FFF7B5FFCD
:1046D000F1BD70B504000D001600202D06D36B222D
:1046E0000E491148FEF74CFFAFF300803000C0B216
:1046F000002805D120680121A9408843206004E0FA
:1047000020680121A9400843206070BDB8320160D3
:10471000B448016068C00F40EC410160183301608B
:10472000543E0160CC480160C0480160F0B40C0008
:104730000126C56916FA01F39D43C561102902D20D
:1047400010F10C0502E010F11005103C1300DBB273
:10475000012B07D03DD3032B1ED00CD3052B33D018
:1047600029D336E02E6803272300DBB25B009F408D
:10477000BE432E602DE02F685FF0030C2300DBB2F8
:104780005B001CFA03FC37EA0C072300DBB25B007A
:104790009E403E432E601CE02E6803272300DBB2C0
:1047A0005B009F40BE4302272300DBB25B009F40BB
:1047B0003E432E600DE02E6803272300DBB25B0032
:1047C0009F403E432E6004E0C3698E401E43C66195
:1047D000FFE7F0BC704730B4002513E050F8042B1D
:1047E000D30744BFA9F101039A18091F042942F80D
:1047F000045BFAD213468C0744BF15809B1CC90783
:1048000048BF1D7050F8041B0029E7D130BC704729
:1048100010B504001048B0F900107831220092B2AF
:10482000914203DAB0F9001078310C00210089B20E
:10483000B0F90020783A914203DAB0F900007838F4
:1048400004000648048023009BB200220021044893
:1048500000F000FC10BD00BF7A040020F6140080B8
:1048600000003E4080B506210D2000F0D5FC7949BE
:10487000088001BD80B50621042000F0CDFC7649FA
:10488000088001BD80B50621092000F0C5FC7349F0
:10489000088001BD80B506210F2000F0BDFC7049E5
:1048A000088001BD80B50621062000F0B5FC6D49E9
:1048B000088001BD80B50621082000F0ADFC6A49E2
:1048C000088001BD10B52DED028B684C94ED2A0ACD
:1048D000B7EEC00A00F0E4FEB7EEC08B94ED2F0AED
:1048E000B7EEC00A00F0DCFEB7EEC00B38EE400AAF
:1048F000D4ED2A0A94ED2F1A70EE810A80EE200A78
:10490000DFED530A20EE200ABDEC028B10BD000043
:1049100010B52DED028B554C94ED2C0AB7EEC00A64
:1049200000F0BEFEB7EEC08B94ED2D0AB7EEC00AC4
:1049300000F0B6FEB7EEC00B38EE400AD4ED2C0AFC
:1049400094ED2D1A70EE810A80EE200ADFED400A08
:1049500020EE200ABDEC028B10BD80B52DED028B40
:1049600042494348B0F9000001EB800090ED028A13
:104970004048C96A0160404991ED000AB1EE400A21
:10498000B4EE408AF1EE10FA33DB91ED000AB4EE9A
:10499000480AF1EE10FA2CDB3849B1F90020384B07
:1049A00012B203EB820292ED000AB1F90010354A0F
:1049B00009B202EB8101D1ED000A90ED001A38EE48
:1049C000411A61EE200AB2EE041AC0EE810A40EEEE
:1049D000080ABDEEE00A10EE100A00B240422A4971
:1049E00008800420FFF7FFFC28480188491C01804B
:1049F0002AE02249B1F90020254B12B203EB8202D2
:104A000092ED000AB1F90010224A09B202EB8101CD
:104A1000D1ED000A90ED001A38EE411A61EE200A3D
:104A2000B2EE041AC0EE810A40EE080ABDEEE00ABA
:104A300010EE100A00B24042134908800320FFF72D
:104A4000D2FC002011490880BDEC028B01BD0000A2
:104A50000000C842000000800200008004000080C6
:104A600006000080080000800A00008044150080D5
:104A7000EA1700800C00008014010020E817008075
:104A8000A4000020B8000020100000801200008068
:104A9000CC000020E0000020010009B200290AD467
:104AA000012210F01F018A40DFF8A01203001BB2A0
:104AB0005B0941F823207047F8B504000F0025007A
:104AC0002DB22D0A260036B216F01F06072D09D387
:104AD00040F2C132DFF87812DFF87802FEF750FDBD
:104AE000AFF30080DFF8700200EB8500016803225D
:104AF000B24091433A00D2B2B24011430160F1BDDD
:104B000010B504000321200000B2FFF7D5FF10BD4F
:104B100010B5040020007FF07F0100B2884201D16F
:104B2000012004E0200000B2FFF7B6FF002010BD16
:104B300070B4049C11F00705260116F010063543E9
:104B40000560002A00D0136070BC704780B57A20E1
:104B5000FFF7DEFF01BD38B5DFF80042DFF8005295
:104B600028682060DFF8FC0100F0B2FE2860DFF862
:104B7000F8112A682068121A0A80B1F9000032BDC3
:104B800038B5DFF8E841DFF8E85128682060DFF841
:104B9000E40100F09DFE2860DFF8DC112A6820683F
:104BA000121A0A80B1F9000032BD38B588B004008D
:104BB0000D00200000F016F8684600F03AFE2800CC
:104BC000C0B2002802D001208DF8000001208DF82D
:104BD00001006946200000F0B7FD200000F070FEE3
:104BE00009B030BD3EB5040040F20240FFF788FF37
:104BF00040F21620FFF784FF5A48844223D1002058
:104C000001905E4800900023002201215C48FFF7DC
:104C10008FFF5C4D4FF4A1724FF48571280000F0B6
:104C20005DFE0020019058480090002300220121E1
:104C30005648FFF77DFF40F2431240F20B11280067
:104C400000F04CFE77E04B48844223D100200190D5
:104C50004F48009001234F4A06214F48FFF768FF55
:104C6000484D40F247124FF48B71280000F036FE99
:104C700000200190494800900123494A06214948F3
:104C8000FFF756FF4FF4A47240F21511280000F010
:104C900025FE50E04448844223D10020019043483F
:104CA00000900123424A03214248FFF741FF354D5E
:104CB0004FF4A67240F20511280000F00FFE00200C
:104CC00001903D48009001233C4A03213C48FFF7F6
:104CD0002FFF40F24D1240F20711280000F0FEFDB8
:104CE00029E03848844223D10020019036480090C2
:104CF0000123364A01213648FFF71AFF214D40F2C1
:104D000051124FF48871280000F0E8FD0020019056
:104D1000304800900123304A01213048FFF708FF56
:104D20004FF4A97240F20F11280000F0D7FD02E005
:104D30002B4800F00DF937BD80B500210948FFF779
:104D400034FF01210B48FFF730FF01BD00E100E017
:104D5000783601606849016068C00F40F004008047
:104D6000EC04008000803C40E2040080E804008005
:104D7000E404008000C03C40E00400805C831F40ED
:104D80006C811F4000C03B4060831F4070811F400A
:104D9000D4821F4038861F40E4801F40D0821F40CD
:104DA00058861F40E0801F4000003D40B0831F40F8
:104DB00018861F40C0811F40B8831F4020861F40B7
:104DC000C8811F4000403D4074831F404C861F40F7
:104DD00084811F4070831F4048861F4080811F4090
:104DE000D040016070B505000C0043F22156002D43
:104DF00007D140F26D1266496648FEF7C1FBAFF37A
:104E00000080002C07D14FF4B77261496248FEF769
:104E1000B7FBAFF3008022002900604800F062FE7B
:104E2000002801D05FF0FF34200070BD2DE9F04173
:104E300004000D0016001F0000205FF00008B845B8
:104E400011DA2868401C802805D329682000FFF764
:104E5000C9FF00202860286826542868401C286064
:104E600018F10108EBE7BDE8F0812DE9F14F88B0BA
:104E70000E001700984643F2215568464849102213
:104E800000F05AFECDF8008001969DF820008DF8C4
:104E90000A008DF818703800C0B201281CD168468D
:104EA00007905FF01C0A5FF0000BDFF8F8904C46AB
:104EB0005A465146200000F083FEC9F81090D9F8F8
:104EC00010003949086004A9D9F8100000F07BFDF2
:104ED0000400002C0ED115E03800C0B2022801D128
:104EE000280032E03800C0B2032801D128002CE0AD
:104EF00028002AE04FF4157225492C48FEF740FBA4
:104F0000AFF3008019F11401D9F8100000F090FD02
:104F10000500002D07D04FF418721D492348FEF7F5
:104F20002FFBAFF3008019F11801D9F8100000F041
:104F3000AAFD0400002C07D040F26B2214491B4844
:104F4000FEF71EFBAFF30080002009B0BDE8F08F34
:104F50000EB42DE9F841A0B0040000265FF000086F
:104F6000802100226D46280000F02AFE27AD104B5C
:104F70006A462900200000F0D3FF07003900684688
:104F8000FFF730FF21B0BDE8F0015DF810FB000035
:104F9000F83101607C4B016084480160380000807A
:104FA000444401602400008040000080703F0160A4
:104FB0002D4E00602DE9FC4104000D0016001F007D
:104FC00042F21178300080B2404506DBD6221E49FD
:104FD0001E48FEF7D5FAAFF30080380080B2404596
:104FE00006DBD72218491A48FEF7CAFAAFF3008049
:104FF0005FF00108B4F8880118FA05F1090111F011
:10500000F0010843A4F88801300080B2009000232A
:1050100001222900C9B2200001F0EAFB380080B269
:105020000090002300222900C9B2200001F0E0FB1B
:10503000B4F8880118FA05F818F00F0858EA0008C3
:10504000A4F88881BDE8F381A03B0160744401604D
:10505000844401602DE9FC4104000D0016001F008E
:10506000380080B242F21171884206DBBD22144939
:105070001448FEF785FAAFF300805FF00108B4F83A
:10508000880118FA05F1090111F0F0010843A4F8AC
:105090008801380080B2009000233200D2B229008B
:1050A000C9B2200001F0A4FBB4F8880118FA05F891
:1050B00018F00F0858EA0008A4F88881BDE8F381C9
:1050C000A03B016064440160F8B504000F002500B6
:1050D0002DB22D0A260036B216F01F06072D09D371
:1050E00040F2C132DFF80015DFF80005FEF748FA9C
:1050F000AFF30080DFF8F80400EB850001680322BD
:10510000B24091433A00D2B2B24011430160F1BDC6
:1051100010B504000321200000B2FFF7D5FF10BD39
:1051200038B504000D00082D09D34FF48B72DFF859
:10513000C414DFF8C404FEF723FAAFF3008004EBD5
:105140008500406A32BD38B504000D00082D09D332
:105150004FF49772DFF89C14DFF89C04FEF710FA06
:10516000AFF30080206A0121A9400840E84032BD29
:105170000A00D2B2002A04D0426C52F400524264B7
:1051800003E0426C32F400524264704770B4049CF5
:1051900011F00705260116F0100635430560002AB8
:1051A00000D0136070BC70473EB504000D002900AC
:1051B000C9B2200000F05DF8684602F0C2FA002093
:1051C0008DF8060002208DF80A006946200002F0E2
:1051D00065FA0021DFF82404FFF7CAFF200002F07F
:1051E000FBFA37BD3EB504000D002800C0B20090A8
:1051F00000208DF804006A460021200002F0CBFA5E
:1052000000212000FFF79FFF0028F9D00021200097
:10521000FFF786FF80B23EBD2DE9F04705008A46C4
:105220000026002740F6FF785FF000094846514607
:10523000C0B2C9B2884210D22900C9B2DFF8BC039B
:10524000FFF7D0FF0400A74200D22700444500D258
:10525000A046A61919F10109E8E7F61BB6EB080606
:105260005FFA8AFABAF1020AB6FBFAF080B2BDE838
:10527000F0873EB504000D0040F20240FFF748FF02
:10528000DFF87803844240F0DC802800C0B20028B8
:105290001DD0022835D027D304284CD03ED3062871
:1052A00061D055D3082874D068D30A2800F08780CD
:1052B0007AD30C2800F09980C0F08C800E2800F082
:1052C000AA80C0F09D800F2800F0B08089E1002006
:1052D0000190DFF82C030090002300220521DFF865
:1052E0002403FFF753FF7CE100200190DFF818034F
:1052F0000090002300220521DFF81003FFF746FF8E
:105300006FE100200190DFF80803009000230022E5
:105310000521DFF80003FFF739FF62E1002001906B
:10532000DFF8F4020090002300220521DFF8EC02F0
:10533000FFF72CFF55E100200190DFF8E402009018
:10534000002300220521DFF8DC02FFF71FFF48E100
:1053500000200190B4480090002300220521B348AA
:10536000FFF714FF3DE100200190B14800900023B9
:1053700000220521AF48FFF709FF32E1002001902C
:10538000AD480090002300220521AC48FFF7FEFE47
:1053900027E100200190AA48009000230022052167
:1053A000A848FFF7F3FE1CE100200190A6480090FA
:1053B000002300220521A548FFF7E8FE11E10020A7
:1053C0000190A3480090002300220521A148FFF787
:1053D000DDFE06E1002001909F480090002300229E
:1053E00005219E48FFF7D2FEFBE0002001909C487B
:1053F00000900023002205219A48FFF7C7FEF0E045
:105400000020019098480090002300220521974831
:10541000FFF7BCFEE5E000200190954800900023D6
:10542000002205219348FFF7B1FEDAE00020019049
:10543000914800900023002205219048FFF7A6FE26
:10544000CFE02800C0B200281CD0022830D024D3DE
:10545000042843D037D3062856D04AD3082869D029
:105460005DD30A287CD070D30C2800F08F80C0F068
:1054700082800E2800F0A080C0F093800F2800F0FA
:10548000A680AEE0002001905D480090002300223D
:1054900005215C48FFF77AFEA3E0002001907848E0
:1054A00000900023002205217648FFF76FFE98E068
:1054B00000200190744800900023002205217348C9
:1054C000FFF764FE8DE000200190714800900023FA
:1054D000002205216F48FFF759FE82E0002001906D
:1054E0006D4800900023002205216C48FFF74EFE16
:1054F00077E0002001904C48009000230022052115
:105500004A48FFF743FE6CE00020019048480090B5
:105510000023002205214748FFF738FE61E0002004
:105520000190454800900023002205214348FFF7E1
:105530002DFE56E0002001904148009000230022FB
:1055400005214048FFF722FE4BE0002001903E4835
:1055500000900023002205213C48FFF717FE40E0A1
:10556000002001903A48009000230022052139488C
:10557000FFF70CFE35E00020019037480090002333
:10558000002205213548FFF701FE2AE000200190A6
:10559000334800900023002205213248FFF7F6FD32
:1055A0001FE00020019030480090002300220521D8
:1055B0002E48FFF7EBFD14E0002001902C480090EE
:1055C0000023002205212B48FFF7E0FD09E0002021
:1055D0000190294800900023002205212748FFF769
:1055E000D5FD37BD00000000183601605C49016040
:1055F00068C00F40D82F01602043016000400C407C
:1056000018831F4028811F40DC821F40EC801F4010
:10561000E0821F40F0801F40E4821F40F4801F4062
:10562000E8821F40F8801F40EC821F40FC801F4032
:10563000F0821F4000811F40F4821F4004811F4000
:10564000F8821F4008811F40FC821F400C811F40D0
:1056500000831F4010811F4004831F4014811F409E
:1056600008831F4018811F400C831F401C811F406E
:1056700010831F4020811F4014831F4024811F403E
:105680001C831F402C811F4020831F4030811F40FE
:1056900024831F4034811F4028831F4038811F40CE
:1056A000B5EEC00BF1EE10FA02D4B1EEC00B7047AC
:1056B0006FF0004C20EE10CBAFF300807047026813
:1056C000531C036011707047F8B504000F002500EB
:1056D0002DB22D0A260036B216F01F06072D07D36D
:1056E00040F2C1326E496F48FDF74AFFAFF30080C8
:1056F0006D4800EB850001680322B24091433A00F7
:10570000D2B2B24011430160F1BD10B504000321D3
:10571000200000B2FFF7D8FF10BD38B50400002507
:10572000052D06D2614850F82500A04201D06D1C1D
:10573000F6E7052D06D33C225D495E48FDF720FFC4
:10574000AFF30080280032BD38B505000C00002CF6
:1057500006D14E2256495848FDF712FFAFF300809C
:105760002800FFF7DAFF554931F91000FFF7CDFFA8
:10577000298844F689000140A078002806D051F419
:105780000051A078022801D151F4805120780028DE
:1057900001D051F480616078012801D151F4007189
:1057A000E078002806D051F04001E078022801D1CD
:1057B00051F02001A079002803D051F00401208984
:1057C000A88029806089000210F4E060227B02F04A
:1057D000FF0210436880EA8B4FF258400240A07BE2
:1057E000012801D152F40072207D012801D152F428
:1057F0008072607D002806D052F00402A069000C7F
:105800002884A06968842079002801D052F002021F
:105810006079002801D052F00102EA832069000C6F
:10582000A8842069E884E069000CE882E0692883A4
:1058300031BDF8B50400002C06D1D0221C491E4809
:10584000FDF79EFEAFF300802025002627003200E2
:105850002900380000F0B4F90020207000206070AA
:105860000020A0700020E0700020207100206071F6
:105870000020A07100202081002060810020A081F4
:105880000020A0735FF0FF30206100202075002011
:1058900060750020A0610020E061F1BD0000000003
:1058A000583201609048016068C00F406C4201604E
:1058B000303A0160183E01609C480160A8480160D0
:1058C000028847F6ED610A4052F400620280704798
:1058D0000200D0890004918A0843704770B4130015
:1058E0001BB2C3F3460310EB430413001BB2C3F314
:1058F000460310EB43031D88FF2612F00103DBB2C1
:10590000DB009E40B5430E0036B206F0FF0612F0F3
:105910000103DBB2DB009E403543258070BC70473D
:105920002DE9F04105000C0016001F0043F221583C
:10593000002C0AD0287B012807D13A00310015F14C
:10594000080001F0CEFF8046FFE7404600B2BDE808
:10595000F0812DE9F04107000E001500002F09D15C
:1059600040F2E722DFF89011DFF89001FDF708FE22
:10597000AFF30080002E07D14FF43A725E496048C1
:10598000FDF7FEFDAFF30080002D07D140F2E922C4
:1059900059495C48FDF7F4FDAFF30080B846D8F8EC
:1059A0000040002C07D140F2EE2253495648FDF743
:1059B000E7FDAFF300802B00320041462000FFF7E7
:1059C000AFFFBDE8F0812DE9F04704000D0043F280
:1059D0002156002D07D140F20A3247494C48FDF7C5
:1059E000CFFDAFF30080002C07D140F20F324249C7
:1059F0004848FDF7C5FDAFF3008027005FF01008B1
:105A00005FF00009BA464A464146504600F0D8F8D1
:105A1000287A3873287A012806D1E96817F1080036
:105A200001F028FF0600FFE7300000B2BDE8F08774
:105A30002DE9F04705000C00002D07D140F2A632F9
:105A40002D493448FDF79CFDAFF30080002C07D1B1
:105A500040F2A73228492948FDF792FDAFF30080B4
:105A60002E0027005FF004085FF00009A2464A46B6
:105A70004146504600F0A4F87068401C70603E60DB
:105A80000020BDE8F0872DE9F04705000C00002D4F
:105A900007D140F2D93218491E48FDF771FDAFF326
:105AA0000080002C07D140F2DA3213491748FDF785
:105AB00067FDAFF300802E0027003068002802D079
:105AC00043F222500CE05FF004085FF00009A246A8
:105AD0004A464146504600F073F837603E60002069
:105AE000BDE8F08770B504000D00160032002900F3
:105AF0002000FFF72EFF70BD583C0160C8490160CF
:105B0000F44B0160FC4B0160044C0160D44901601E
:105B10000C4C0160A444016062B38B0708D0521E94
:105B200011F8013B00F8013B00F024808B07F6D10F
:105B3000830740F0208000BF103A07D330B4B1E8AB
:105B40003810103AA0E83810F9D230BC530724BFFF
:105B5000B1E80810A0E8081044BF51F8043B40F831
:105B6000043BD20724BF31F8022B20F8022B44BF9C
:105B70000B7803707047121F17D35B0009D151F8DF
:105B8000043B20F8023B1B0C121F20F8023BF6D20C
:105B90000BE051F8043B00F8013B1B0A20F8023BE4
:105BA0001B0C121F00F8013BF3D238BF121D521E0E
:105BB00024BF11F8013B00F8013BF8D870470C01F5
:105BC00062F30F2262F31F42401810F0030308D063
:105BD000C91A1FD3DB0748BF00F8012D28BF20F8E2
:105BE000022D130030B414461546103928BF20E9A1
:105BF0003C00FAD8490728BF20E90C0048BF40F80C
:105C0000042D890028BF20F8022D48BF00F8012D7F
:105C100030BC7047C91818BF00F8012DCB0728BF4A
:105C200000F8012D70472E002DE9FF4F8BB00024A6
:105C30000B9800210170451C0D98002849D00C9844
:105C4000D0E90001CDE90201DDE90201002906D118
:105C5000002804D130202870641C200089E0DDE990
:105C60000201002902D1002800F08280DDE9020152
:105C70000E9AD31701F068FECDE90801DDE902AB09
:105C8000DDE908230E98C117A0FB028900FB0399E8
:105C900001FB0299BAEB08007BEB0901002909D549
:105CA00006000F00F243FB43313253F10003CDE90C
:105CB000062304E0303051F10001CDE90601DDE9B1
:105CC0000801CDE90201DDE9060128706D1C641CA4
:105CD000C5E70C98D0E90001CDE90001DDE900013C
:105CE000002906D1002804D130202870641C20002F
:105CF0003FE0DDE90001002901D1002838D0DDE9CD
:105D000000010E9AD31701F041FECDE90401DDE94F
:105D100000ABDDE904230E98C117A0FB028900FB4C
:105D2000039901FB0299BAEB08027BEB0903002BF4
:105D300007D801D30A2A04D212F1300653F1000722
:105D40000EE09DF86000002802D04120002101E013
:105D5000612000210A3871F10001161853EB010788
:105D6000DDE90401CDE900012E706D1C641CC0E763
:105D700020000FB0BDE8F08F2DE9F34F81B02DED7D
:105D80000A8B84B090469A4600260F980021017035
:105D9000451C109890ED00AB9FED5F1BB4EE41AB3E
:105DA000F1EE10FA04D130202870761C3000ADE0FE
:105DB00002A8B0EE4A0B01F001FFB0EE40BB5FF06D
:105DC0000009D14508D200EE108AB8EEC00B20EED3
:105DD0000BBB19F10109F4E79FED4F1BB4EE41AB8A
:105DE000F1EE10FA19DBB6EE001B3BEE01CB00EE34
:105DF00010AAB8EE401BB2EE040B01F02FFFB4EE78
:105E000040CBF1EE10FA23DB9DED020BB7EE002B39
:105E100030EE020B8DED020B1AE0BEEE001B3BEEE6
:105E200001CB00EE10AAB8EE401BB2EE040B01F05D
:105E300015FFB1EE400BB4EE4C0BF1EE10FA07DBA0
:105E40009DED020BBFEE002B30EE020B8DED020B31
:105E50000027574531D200EE108AB8EEC00B8CEE09
:105E6000000BB0EE409B51EC190B02F0ADF90200B3
:105E70000B005FEAE879A8FB020108FB031109FBAC
:105E8000021102F0CFF941EC100B3CEE400BB0EEEA
:105E9000408BBDEEC80B10EE100A002804D58346D7
:105EA0007FEA0B04313401E004003034B0EE49CB1A
:105EB0002C706D1C761C7F1CCBE72E2028706A1C72
:105EC000761C30009DED020BBDEEC00B10EE101ADB
:105ED000002904D130231370521C401C16E0002905
:105EE00014D091FBF8F30093009B08FB1313002BD5
:105EF00004D59B467FEA0B04313401E01C003034AA
:105F0000009B19001470521C401CE8E704B0BDEC63
:105F10000A8BBDE8FE8F00000000000000000000BA
:105F20002DE9F14F9AB0884693461C000020069058
:105F300000250020029000208DF80500002000219F
:105F4000CDE90A011A9F38788146B9F1000F00F0B7
:105F50001683B9F1250F07D0012348460200D2B2BB
:105F600002A95846A04708E301208DF8040000204C
:105F70000600002000281FD17F1C397820290ED070
:105F8000232912D02B2907D02D2902D0302909D05E
:105F90000EE056F00106EDE756F00206EAE756F08D
:105FA0000406E7E756F00806E4E756F01006E1E7D6
:105FB0007F1E01210800DDE70021049100210891E6
:105FC000089800281DD17F1C38788146B9F1300F20
:105FD0000ADBB9F13A0F07DA04990A22B9F1300065
:105FE00002FB01010491EBE7B9F12A0F05D1D8F8C2
:105FF000000018F104080490E2E77F1E01200890D9
:10600000DEE70620079000208DF80600791C08784E
:106010002E282AD1002007900020089008980028F8
:1060200024D1491C08788146B9F1300F0DDBB9F154
:106030003A0F0ADA079A0A23B9F1300003FB020289
:10604000079201208DF80600E8E7B9F12A0F08D180
:10605000D8F8000018F10408079001208DF8060018
:10606000DCE7491E01200890D8E7491E481C01784A
:10607000682902D06C290BD015E0401C01786829F2
:1060800003D056F04006401E01E056F020060BE01B
:10609000401C01786C2903D056F08006401E01E0B8
:1060A00056F4807600E0401E471C38788146B9F1EE
:1060B000640F1BD0B9F1690F18D0B9F1660F15D074
:1060C000B9F1460F12D0B9F1780F0FD0B9F1580FCE
:1060D0000CD0B9F16F0F09D0B9F1620F06D0B9F148
:1060E000700F03D0B9F1750F40F0E481B9F1640F7E
:1060F00002D0B9F1690F70D1F0050AD518F107087F
:1061000038F00708D8E9000118F10808CDE90C01BA
:1061100006E0D8F8000018F10408C117CDE90C0119
:106120009DF8040000900A2301220CA910A8FFF793
:106130007BFD050010A828440690DDE90C0100292C
:1061400003D52D2003906D1C0DE0B00703D52B2047
:1061500003906D1C07E0700703D5202003906D1C91
:1061600001E00020039000200590300714D503982B
:10617000002806D0012303980200D2B202A9584693
:10618000A04701200590049B5B1B302202A95846C2
:10619000A0470498050013E0F00711D4049B5B1B93
:1061A000202202A95846A0470398002806D00123C0
:1061B00003980200D2B202A95846A04701200590D8
:1061C0000598002809D10398002806D001230398D8
:1061D0000200D2B202A95846A047B9F1660F02D018
:1061E000B9F1460F6CD118F1070838F0070898ED9F
:1061F000000B18F108088DED0E0B079B0A220EA963
:1062000010A8FFF7B9FD050010A8284406909DEDE1
:106210000E0B9FED052BB4EE420BF1EE10FA07D5F5
:106220002D2003906D1C11E0000000000000000014
:10623000B00703D52B2003906D1C07E0700703D532
:10624000202003906D1C01E00020039000200590A9
:10625000300714D50398002806D0012303980200C4
:10626000D2B202A95846A04701200590049B5B1BAF
:10627000302202A95846A0470498050013E0F00711
:1062800011D4049B5B1B202202A95846A047039807
:10629000002806D0012303980200D2B202A9584672
:1062A000A047012005900598002809D103980028EF
:1062B00006D0012303980200D2B202A95846A04793
:1062C000B9F1580F03D0B9F1780F40F08080B9F1DF
:1062D000780F02D100208DF80400F0050AD518F1DE
:1062E000070838F00708D8E9000118F10808CDE9D7
:1062F0000A0106E0D8F8000018F104080021CDE9F1
:106300000A019DF804000090102300220AA910A899
:10631000FFF78AFC050010A828440690002005908D
:1063200030071DD5F00612D50123302202A95846A8
:10633000A0479DF80400002801D0582200E07822F0
:106340000123D2B202A95846A04701200590049B20
:106350005B1B302202A95846A047049805001FE0A5
:10636000F0071DD4F00600D5AD1C049B5B1B20225A
:1063700002A95846A047F00612D50123302202A9EF
:106380005846A0479DF80400002801D0582200E09C
:1063900078220123D2B202A95846A04701200590D5
:1063A000F00614D50598002811D10123302202A946
:1063B0005846A0479DF80400002801D0582200E06C
:1063C00078220123D2B202A95846A047AD1CB9F1E8
:1063D0006F0F08D0B9F1620F05D0B9F1700F02D07C
:1063E000B9F1750F4CD1F0050AD518F1070838F04E
:1063F0000708D8E9000118F10808CDE90A0106E00C
:10640000D8F8000018F104080021CDE90A01B9F11B
:106410006F0F03D108208DF8050010E0B9F1620F6D
:1064200003D102208DF8050009E0B9F1700F03D106
:1064300010208DF8050002E00A208DF805009DF877
:10644000040000909DF8053000220AA910A8FFF76B
:10645000EBFB050010A828440690300708D5049BE4
:106460005B1B302202A95846A0470498050007E0AC
:10647000F00705D4049B5B1B202202A95846A047C5
:10648000069800280DD006980078002809D001232E
:106490000698027802A95846A0470698401E069022
:1064A000F1E7F00769D5049B5B1B202202A958463F
:1064B000A04762E0B9F1630F0DD1D8F8000018F1E0
:1064C0000408C0B20990012309980200D2B202A9BF
:1064D0005846A04751E0B9F1730F47D1D8F80000F2
:1064E00018F104088246BAF1000F46D09DF8060064
:1064F000002802D00798050003E0504601F0BCFEDA
:106500000500F00705D4049B5B1B202202A9584616
:10651000A0479DF80600002812D09AF80000002835
:106520000BD0012D09DB01239AF8002002A958465F
:10653000A0471AF1010A6D1EEFE70798451B0CE012
:106540009AF80000002808D001239AF8002002A938
:106550005846A0471AF1010AF2E7F0070DD5049B4F
:106560005B1B202202A95846A04706E001234846AB
:106570000200D2B202A95846A0477F1CE3E4029869
:106580001BB0BDE8F08F0000F8B504000F00250037
:106590002DB22D0A260036B216F01F06072D09D39C
:1065A00040F2C132DFF81415DFF81405FCF7E8FFFC
:1065B000AFF30080DFF80C0500EB850001680322D3
:1065C000B24091433A00D2B2B24011430160F1BDF2
:1065D00010B504000321200000B2FFF7D5FF10BD65
:1065E000B0F888210B00DBB21B0213F470631A436E
:1065F000A0F88821704710B41300DBB2002B09D03B
:10660000B0F888310C00E4B214F00F042343A0F872
:10661000883109E0B0F888310C00E4B2240114F0AC
:10662000F0042343A0F8883110BC704770B4049C78
:1066300011F00705260116F0100635430560002A03
:1066400000D0136070BC704730B4029C039D002CD6
:1066500000D0256030BC70472DE9F84F8AB00400A7
:106660000D0016001F003200D2B22900C9B220006E
:1066700000F032FA3200D2B22900C9B2200000F094
:106680002BFA032001F01BFF804607A802F0AAFAAC
:1066900002208DF8240001208DF81C00380080B203
:1066A000B8FBF0FA5FF00009BAF5803F04D319F1A6
:1066B00001095FEA5A0AF7E74846C0B2082808DB32
:1066C0007722DFF80814DFF80804FCF759FFAFF36E
:1066D00000808DF8229007AA2900C9B2200002F09C
:1066E000B3F9012806D12900C9B2DFF8E803FEF7A3
:1066F0002FFC59E000212A00D2B26020424304EB73
:10670000020081850020ADF80C0001208DF81000FA
:106710003000C0B2002802D100208DF8100004A87B
:106720000021817000214170BDF80C10ADF81410EB
:10673000002181710021017200208DF81700BDF841
:106740000C00ADF81A003000C0B203280ED1CDF80D
:106750000880380080B2019000200090022304AA33
:106760002900C9B2200002F06BFA0DE0CDF80880D4
:10677000380080B2019000200090012304AA290073
:10678000C9B2200002F05CFA5FF0010B01221BFA93
:1067900005F1C9B22000FFF72EFF1BFA05FB594691
:1067A000C9B22000FFF71CFF0BB0BDE8F08F80B529
:1067B0004B2300220021DFF8E80AFFF74DFFDFF846
:1067C0000803008880B2FEF723F801BD10B542F639
:1067D000E064230003220321DFF8500BFFF73CFFA6
:1067E000230003220321DFF8B80AFFF735FF10BDAD
:1067F0002DE9F84305000E0017009846089C380064
:10680000C0B2022808DB40F21122B049DFF8400C88
:10681000FCF7B6FEAFF300800021002200234046C3
:10682000C0B2002807D0022800F0BF805CD3032844
:1068300000F006813FE15FF0600C3000C0B20CFB5D
:1068400000F02844B0F90E0003009BB2580001008C
:106850008E461FFA8EFE200080B200FB0EFE42F232
:1068600010709EFBF0F002003800C0B201281DD16C
:106870003000C0B20CFB00F0284496461FFA8EFE92
:106880007FF001099EFBF9FEA0F812E03000C0B2D3
:106890000CFB00FC05EB0C0094461FFA8CFC5FF02F
:1068A000020E9CFBFEFCA0F816C01CE03000C0B23B
:1068B0000CFB00F0284496461FFA8EFE7FF001097B
:1068C0009EFBF9FEA0F81AE03000C0B20CFB00FC01
:1068D00005EB0C0094461FFA8CFC5FF0020E9CFB4B
:1068E000FEFCA0F81EC0E6E05FF0600C3000C0B215
:1068F0000CFB00F02844C08901008E461FFA8EFE72
:10690000200080B200FB0EFE42F210709EFBF0F001
:1069100002003800C0B2012823D13000C0B20CFB05
:1069200000F005EB000E89461FFA89F9100080B2CD
:10693000B9EB0009022099FBF0F0AEF8120030002C
:10694000C0B20CFB00FC05EB0C0094461FFA8CFC5B
:106950001CFA81FC5FF0020E9CFBFEFCA0F816C046
:1069600022E03000C0B20CFB00F005EB000E8946BF
:106970001FFA89F9100080B2B9EB0009022099FBD7
:10698000F0F0AEF81A003000C0B20CFB00FC05EBD2
:106990000C0094461FFA8CFC1CFA81FC5FF0020E7E
:1069A0009CFBFEFCA0F81EC085E05FF0600C300090
:1069B000C0B20CFB00F02844B0F90E0003009BB2FB
:1069C000580001008E461FFA8EFE200080B200FBA8
:1069D0000EFE42F210709EFBF0F002003800C0B2D2
:1069E000012816D13000C0B20CFB00F028449E46AE
:1069F0000FFA8EFEDEF1000EA0F812E03000C0B2F9
:106A00000CFB00FC05EB0C00B2EB030CA0F816C06D
:106A100015E03000C0B20CFB00F028449E460FFA8F
:106A20008EFEDEF1000EA0F81AE03000C0B20CFBC2
:106A300000FC05EB0C00B2EB030CA0F81EC03AE022
:106A40005FF0600C3000C0B20CFB00F02844C0893D
:106A500001008E461FFA8EFE200080B200FB0EFE63
:106A600042F210709EFBF0F002003800C0B2012824
:106A700010D13000C0B20CFB00F028445FF0000ED3
:106A8000A0F812E03000C0B20CFB00FC05EB0C00DB
:106A9000C2820FE03000C0B20CFB00F028445FF06F
:106AA000000EA0F81AE03000C0B20CFB00FC05EBB1
:106AB0000C00C283FFE7BDE8F18300009837016056
:106AC0009849016068C00F407A040020A03B016033
:106AD000E44B0160E83F01602DE9FE4304000D0036
:106AE000160040F20240FFF773FDDFF840088442D1
:106AF00040F02F812800C0B2002807D0022800F003
:106B000095804BD3032800F0D8801DE13000C0B23F
:106B1000012803D03000C0B203281AD1DFF834793D
:106B2000DFF83489DFF8349900200190CDF8009027
:106B30000123424601213800FFF778FD41F2B00001
:106B40000190CDF800900123424601213800FFF763
:106B50007BFD3000C0B2002803D03000C0B2032853
:106B60001AD1DFF8FC78DFF8FC88DFF8FC98002009
:106B70000190CDF800900123424601213800FFF733
:106B800055FD41F2B0000190CDF80090012342463E
:106B900001213800FFF758FD00F057BC3000C0B2AB
:106BA000012803D03000C0B203281AD1DFF8BC7826
:106BB000DFF8BC88DFF8BC9800200190CDF8009089
:106BC0000123424601213800FFF730FD41F2B000B9
:106BD0000190CDF800900123424601213800FFF7D3
:106BE00033FD3000C0B2002803D03000C0B203280B
:106BF0001AD1DFF88478DFF88488DFF884980020E1
:106C00000190CDF800900123424601213800FFF7A2
:106C10000DFD41F2B0000190CDF8009001234246F5
:106C200001213800FFF710FD00F00FBC3000C0B2AA
:106C3000012803D03000C0B203281AD1DFF844780D
:106C4000DFF84488DFF8449800200190CDF80090E8
:106C50000123424601213800FFF7E8FC41F2B00071
:106C60000190CDF800900123424601213800FFF742
:106C7000EBFC3000C0B2002803D03000C0B20328C3
:106C80001AD1DFF80C78DFF80C88DFF80C980020B8
:106C90000190CDF800900123424601213800FFF712
:106CA000C5FC41F2B0000190CDF8009001234246AE
:106CB00001213800FFF7C8FCC7E33000C0B201284B
:106CC00003D03000C0B203281AD1DFF8D077DFF844
:106CD000D087DFF8D09700200190CDF800900023F6
:106CE000424602213800FFF7A1FC41F2B0000190BA
:106CF000CDF800900023424602213800FFF7A4FCA3
:106D00003000C0B2002803D03000C0B203281AD12E
:106D1000DFF89477DFF89487DFF8949700200190EC
:106D2000CDF800900023424602213800FFF77EFC98
:106D300041F2B0000190CDF80090002342460221BC
:106D40003800FFF781FC80E3DFF86807FEF700F901
:106D50007BE3DFF84C05844240F02D812800C0B26F
:106D6000002807D0022800F093804AD3032800F0BF
:106D7000D6801BE13000C0B2012803D03000C0B281
:106D800003281AD1DFF83077DFF83087DFF8309743
:106D900000200190CDF800900123424602213800E6
:106DA000FFF744FC41F2B0000190CDF800900123C0
:106DB000424602213800FFF747FC3000C0B20028ED
:106DC00003D03000C0B203281AD1DFF8F876DFF81C
:106DD000F886DFF8F89600200190CDF800900123A6
:106DE000424602213800FFF721FC41F2B000019039
:106DF000CDF800900123424602213800FFF724FC21
:106E000023E33000C0B2012803D03000C0B2032811
:106E10001AD1DFF8BC76DFF8BC86DFF8BC9600201C
:106E20000190CDF800900123424602213800FFF77F
:106E3000FDFB41F2B0000190CDF8009001234246E5
:106E400002213800FFF700FC3000C0B2002803D058
:106E50003000C0B203281AD1DFF88076DFF88086D0
:106E6000DFF8809600200190CDF800900123424683
:106E700002213800FFF7DAFB41F2B0000190CDF8B3
:106E800000900123424602213800FFF7DDFBDCE2DF
:106E90003000C0B2012803D03000C0B203281AD19C
:106EA000DFF84476DFF84486DFF84496002001904E
:106EB000CDF800900123424602213800FFF7B6FBCF
:106EC00041F2B0000190CDF800900123424602212A
:106ED0003800FFF7B9FB3000C0B2002803D0300003
:106EE000C0B203281AD1DFF80C76DFF80C86DFF881
:106EF0000C9600200190CDF800900123424602211B
:106F00003800FFF793FB41F2B0000190CDF80090FC
:106F10000123424602213800FFF796FB95E230003C
:106F2000C0B2012803D03000C0B203281AD1DFF864
:106F3000D075DFF8D085DFF8D09500200190CDF82E
:106F400000900023424602213800FFF76FFB41F218
:106F5000B0000190CDF80090002342460221380095
:106F6000FFF772FB3000C0B2002803D03000C0B27F
:106F700003281AD1DFF89475DFF89485DFF894952B
:106F800000200190CDF800900023424602213800F5
:106F9000FFF74CFB41F2B0000190CDF800900023C8
:106FA000424602213800FFF74FFB4EE2DFF80405AE
:106FB000FDF7CEFF49E2DFF86005844240F01C8116
:106FC0002800C0B2002807D0022800F08B8046D3EA
:106FD000032800F0CA800BE13000C0B2012803D0C2
:106FE0003000C0B2032818D1DFF83075DFF83085E3
:106FF00000200190CDF800800023002201213800FC
:10700000FFF714FB41F2B0000190CDF8008000239F
:10701000002201213800FFF717FB3000C0B2002822
:1070200003D03000C0B2032818D1DFF8F874DFF8BD
:10703000F88400200190CDF8008000230022012177
:107040003800FFF7F3FA41F2B0000190CDF800806C
:107050000023002201213800FFF7F6FAF5E13000A5
:10706000C0B2012803D03000C0B2032818D1DFF825
:10707000BC74DFF8BC8400200190CDF800800023B0
:10708000002201213800FFF7D1FA41F2B00001904F
:10709000CDF800800023002201213800FFF7D4FA48
:1070A0003000C0B2002803D03000C0B2032818D18D
:1070B000DFF88074DFF8808400200190CDF8008034
:1070C0000023002201213800FFF7B0FA41F2B0009E
:1070D0000190CDF800800023002201213800FFF745
:1070E000B3FAB2E13000C0B2012803D03000C0B220
:1070F000032818D1DFF84474DFF84484002001909D
:10710000CDF800800023002201213800FFF78EFA1D
:1071100041F2B0000190CDF800800023002201214F
:107120003800FFF791FA3000C0B2002803D03000D9
:10713000C0B2032818D1DFF80C74DFF80C840020EB
:107140000190CDF800800023002201213800FFF7D4
:107150006DFA41F2B0000190CDF8008000230022CA
:1071600001213800FFF770FA6FE13000C0B201284A
:1071700003D03000C0B2032818D1DFF8D073DFF895
:10718000D08300200190CDF800800023002201214F
:107190003800FFF74BFA41F2B0000190CDF80080C3
:1071A0000023002201213800FFF74EFA3000C0B260
:1071B000002803D03000C0B2032818D1DFF8947340
:1071C000DFF8948300200190CDF800800023002296
:1071D00001213800FFF72AFA41F2B0000190CDF802
:1071E00000800023002201213800FFF72DFA2CE156
:1071F000B048FDF7ADFE28E1D848844240F0228136
:107200002800C0B2002807D0022800F0918049D39E
:10721000032800F0D08011E13000C0B2012803D073
:107220003000C0B2032819D1CD4FDFF83883DFF822
:10723000389300200190CDF80090012342460121AF
:107240003800FFF7F3F941F2B0000190CDF800905B
:107250000123424601213800FFF7F6F93000C0B2A1
:10726000002803D03000C0B2032817D1BF4FDFF889
:10727000008300200190CDF800800023002201212E
:107280003800FFF7D3F941F2B0000190CDF800804B
:107290000023002201213800FFF7D6F9D5E000BF16
:1072A00000003E403000C0B2012803D03000C0B220
:1072B000032819D1AF4FDFF8C082DFF8C092002059
:1072C0000190CDF800900123424601213800FFF7DC
:1072D000ADF941F2B0000190CDF800900123424693
:1072E00001213800FFF7B0F93000C0B2002803D008
:1072F0003000C0B2032817D1A14FDFF888820020E8
:107300000190CDF800800023002201213800FFF712
:107310008DF941F2B0000190CDF8008000230022E9
:1073200001213800FFF790F98FE000BF00C03D4019
:107330003000C0B2012803D03000C0B2032819D1F8
:10734000914FDFF84882DFF8489200200190CDF895
:1073500000900123424601213800FFF767F941F20E
:10736000B0000190CDF80090012342460121380081
:10737000FFF76AF93000C0B2002803D03000C0B275
:10738000032817D1834FDFF8108200200190CDF839
:1073900000800023002201213800FFF747F941F265
:1073A000B0000190CDF800800023002201213800B8
:1073B000FFF74AF949E03000C0B2012803D030009D
:1073C000C0B2032819D1754FDFF8D481DFF8D4910A
:1073D00000200190CDF800900123424601213800A1
:1073E000FFF724F941F2B0000190CDF8009001239D
:1073F000424601213800FFF727F93000C0B20028CB
:1074000003D03000C0B2032817D1674FDFF89C814A
:1074100000200190CDF800800023002201213800D7
:10742000FFF704F941F2B0000190CDF8008000238D
:10743000002201213800FFF707F906E01D48FDF79B
:1074400087FD02E05A48FDF783FDBDE8F7830000A1
:1074500094440160BC811F4058841F40AC831F408E
:10746000C0811F4068841F40B0831F40C4811F40FB
:107470005C841F40B4831F40C8811F406C841F4040
:10748000B8831F40CC811F4060841F40BC831F40D5
:10749000D0811F4070841F40C0831F40D4811F4093
:1074A00054841F40C4831F40D8811F4064841F4000
:1074B000C8831F40083F016054811F4078841F40EB
:1074C00044831F4058811F4088841F4048831F40C9
:1074D0005C811F407C841F404C831F4060811F40A3
:1074E0008C841F4050831F4064811F4080841F4054
:1074F00054831F4068811F4090841F4058831F4061
:10750000DC811F4074841F40CC831F40E0811F40FA
:1075100084841F40D0831F4000403E4088801F402D
:1075200078821F408C801F407C821F4090801F40CB
:1075300080821F4094801F4084821F4098801F409B
:1075400088821F409C801F408C821F4068801F40A3
:1075500058821F406C801F405C821F4000803E406C
:107560001C811F4094841F400C831F4018801F40C3
:1075700008821F4020811F4098841F4010831F40B5
:1075800020801F4010821F40B4811F409C841F40F8
:10759000A4831F4028801F4018821F40B8811F40CD
:1075A000A0841F40A8831F405C801F404C821F4066
:1075B00010400160F8B504000F0025002DB22D0A1F
:1075C000260036B216F01F06072D07D340F2C1324F
:1075D0009E499F48FBF7D4FFAFF300809D4800EB26
:1075E000850001680322B24091433A00D2B2B24012
:1075F00011430160F1BD10B504000321200000B269
:10760000FFF7D8FF10BD38B504000D00082D07D3D3
:107610004FF48B7290499148FBF7B2FFAFF30080B3
:1076200004EB8500406A32BD38B504000D00082D1A
:1076300007D34FF4977288498848FBF7A1FFAFF34F
:107640000080206A0121A9400840E84032BD0A00BC
:10765000D2B2002A04D0426C52F40052426403E0D9
:10766000426C32F4005242647047C06C704738B5C7
:1076700004000025032D06D2794850F82500A042C9
:1076800001D06D1CF6E7032D06D3352275497648E7
:10769000FBF776FFAFF30080280032BD38B5050058
:1076A0000C00002C06D142226E497048FBF768FF9F
:1076B000AFF300802800FFF7DAFF6D4931F91000C1
:1076C000FFF799FF696C11F46041A079C00210F4D2
:1076D000C050E279120212F440721043227A12F082
:1076E00003021043627A520112F060021043A27A40
:1076F000920012F00C02104301432078002801D0C0
:1077000051F480312079002801D051F01001E07847
:10771000002801D051F08001A078002801D051F458
:1077200080616964AA6C32F041026078002801D05F
:1077300052F040026079002801D052F00102AA64A0
:1077400031BDF8B50400002C06D1902245494748C8
:10775000FBF716FFAFF300800B2500262700320051
:1077600029003800FEF72CFA0120607100202070FB
:10777000002060700020A0700020E07000202071C8
:107780000020A0710020E0710320207200206072B0
:107790000220A072F1BD70B505000E001400002C8F
:1077A00006D1BF222F493148FBF7EAFEAFF3008034
:1077B000082E06D3C0222B492848FBF7E1FEAFF381
:1077C0000080217811F01F012079002801D051F0AC
:1077D000800145F8261070BD70B504000025002614
:1077E000606C800405D50120060000212000FFF711
:1077F0002EFF0220E064A06C50F08000A064A06C1A
:10780000000606D52000FFF730FF8007F7D50120DE
:10781000050000212000FFF707FF002801D101200B
:1078200005002000FFF721FF800701D5012005009A
:1078300000212000FFF7E7FE3000C0B2002803D08F
:1078400001212000FFF703FF280070BD38310160DF
:107850006048016068C00F4078390160584201609B
:1078600078480160D4390160DC3D01606C480160FA
:10787000744B0160F8B584B004000D00002D06D1F2
:107880008A222C492C48FBF77BFEAFF30080002CAA
:1078900006D18B2227492948FBF772FEAFF30080FF
:1078A0002E00270070680190307A8DF80800707AF9
:1078B0008DF80900F07A8DF80A00307B8DF80B0006
:1078C00030680090B07A8DF80C006946380001F0FD
:1078D000FFFB002802D043F2215000E0002005B059
:1078E000F0BDF8B506000D001400002E07D140F2DF
:1078F0000D1210491148FBF743FEAFF30080002D35
:1079000007D14FF487720B490D48FBF739FEAFF3EF
:107910000080002C07D140F20F1206490948FBF7FE
:107920002FFEAFF30080370022002900380001F05D
:1079300040FCF2BDB43C0160B4440160C444016049
:10794000144C01601C4C016013F0004C03D55B42E9
:10795000524263F100039CEA210C00F0178010B53D
:10796000644603D34942404261F1000100F00EF841
:10797000640004D34942404261F10001244203D52E
:107980005B42524263F1000310BD0000BBBBE1B19A
:10799000B2F5803F80F07E80022A1ED98C46B1FB72
:1079A000F2F102FB11C31B0443EA1043B3FBF2FCE8
:1079B00002FB1C3380B240EA0343B3FBF2F002FB4C
:1079C000103240EA0C4000237047022A05D9844651
:1079D000B0FBF2F002FB10C270474AB105D100F0D3
:1079E000010249085FEA3000704700220023704717
:1079F00001F01EBC0B0002000021002070479042E5
:107A000071EB030CF6D3B3F5803F2FD2F0B5B3FA88
:107A100083F7B1FA81F4A7F10F0E3D1B5340CEF16D
:107A2000200602FA0EF2F3415340B5F10F0746D893
:107A30000F3C2C444140C4F12006A040F14141409C
:107A4000B1FBF3F603FB1611A2FB0645001BA9418F
:107A500002D2761E8018594180EA010221FA0EF303
:107A600062FA0EF200215A403046F0BD30B4B1FB4C
:107A7000F3FC03FB1C11A2FB0C45001BA94103D224
:107A8000ACF1010C8018594130BC02460B466046EF
:107A900000217047B2F1807F65D3F0B5B2FA82F76A
:107AA000B1FA81F4C7F10F063D1B22FA06F307F184
:107AB000110EF24120355A40B5F10F07B8D94140B7
:107AC000C4F12006A040F1414140B1FBF3FC03FBAF
:107AD0001C11A2FB0C45001BA94103D2BCF1010CF7
